:041000006F00503FEE
:101004000000000000000000902000207622002054
:10101400A9BDF9F5942000200000000000000000A4
:10102400962000209820002000000000000000000E
:101034009A200020000000009C20002000000000F6
:101044000C230020D4230020A2200020A420002070
:10105400A6200020A8200020AA200020AC200020E8
:10106400BE230020B0200020B2200020B4200020A5
:10107400F2220020B8200020BA200020BC2000204A
:10108400BE200020C0200020C2200020C420002058
:1010940001A001A001A001A001A001A001A001A044
:1010A40001A001A001A001A001A001A001A001A034
:1010B40001A001A001A001A001A001A001A001A024
:1010C40001A001A001A0B71700409306700523807A
:1010D400D704130780FA2380E7040100010003C644
:1010E400B7041376F60DA385C7042380070413768B
:1010F40005024DC203C6A700118A1DE22380D7044E
:101104002380E7040100010003C7A7001367470019
:101114002385E7009307004B01000100FD17EDFF55
:10112400B7170040930670052380D704130780FA8D
:101134002380E704010001007D892394A7000100B6
:10114400010001000100238007042380D7042380C9
:10115400E704010001000100010037270040930665
:101164001005A303D78023800704B7170040130793
:1011740070052380E704130780FA2380E704010045
:10118400010003C7B70413670708A385E704238096
:10119400070482801376050441C603C6A700418A6A
:1011A4001DE22380D7042380E7040100010003C764
:1011B400A700136707012385E7009307007D01005B
:1011C4000100FD17EDFFB71700409306700523805B
:1011D400D704130780FA2380E70401000100137683
:1011E400F501136606042394C70001000100010001
:1011F4000100238007042380D7041306600423809E
:10120400E7046318C5000100010037270040894640
:1012140089BF01000100372700409306200591B7DC
:101224002380D7042380E7040100010003D787004B
:101234001367070C2394E7000DBF41118146014653
:101244008145114506C61526B717004013077005DA
:101254002380E704130780FA2380E70401000100D8
:1012640003C76704136717002383E7042380070475
:10127400B240410182808146014681451145F524F1
:10128400B7170040930670052380D704130780FA2C
:101294002380E704010001007D562396C7022380C2
:1012A400D7042380E7040100010003C76704136720
:1012B40017002383E7042380070401A0BD473305F7
:1012C400F50201007D1575FD8280411122C426C2FC
:1012D40006C6AA84014463179400B240224492448F
:1012E4004101828005041305803E4204C13F4180D0
:1012F400DDB7B7170040130700032388E7028547CB
:1013040017170000232CF7EE730020303727004016
:1013140083476700858BD5C385472303F700971759
:10132400000083C7E7ED850793F7F70F1307C003A2
:101334006388E700171700002304F7EC73002030DC
:10134400411197170000238D07EA22C69717000062
:1013540083D727EB9306F059014763E6F600850728
:1013640013970701418397170000239CE7E89790A0
:1013740000E0E780602A1304C0039715000083D5BA
:1013840045E8B3D5850217E501E01305E53F97D09D
:1013940001E0E78020F39715000083D585E6B3F5D7
:1013A400850217E501E01305253F97D001E0E780AA
:1013B40060F132444101730020307300203037273C
:1013C400004083476740858B81C785472303F740E7
:1013D40073002030797122D626D44AD24ED052CE10
:1013E40056CC5ACA5EC862C666C4814401440149E7
:1013F400B7190040130A900F930A1003171B00003B
:10140400130BCBE0FD4B054CF54C83A7490A13970E
:101414000701E35C07FE971000E0E780C0096367FB
:10142400AA049307850393F7F70F63F2FA0293076D
:1014340045FC93F7F70F63FDFC0459151375F50F7D
:101444009307700263E3A700814463168905832729
:101454000B008607A697171700002329F7DA63FB0A
:101464008B028547171700002301F7DA3254B717A8
:1014740000406177239EE708A25412598259724AA8
:10148400E24A524BC24B324CA24C456173002030AD
:10149400854465BF054905041374F40FBDB74111B4
:1014A40022C406C6370400201C408297F5BF2303DC
:1014B400048015472303E48001002302A480828072
:1014C40083076480E3CE07FE2303048082808307BE
:1014D4006480E3CE07FE03454480828083076480F2
:1014E400E3CE07FE2302A4808280411126C44AC2AF
:1014F4004EC006C61377F50BAD47AA892E899544CD
:101504006306F70019456537653F8D444E854537B9
:10151400FD59FD1463983401B240A2441249824932
:1015240041018280135509011375F50F453F2209C6
:10153400CDB7011126CC06CEB704080051371545A6
:10154400BD37713769372AC6A53F324593771500F1
:1015540089EB136515001375F50FF240E24405613C
:101564008280FD14E9FC0145CDBF397126DC4ADADD
:101574004ED852D656D45AD25ED006DE62CE66CC4F
:10158400B7E700E07D5783AA070022C603AA4700F5
:1015940023A0E71823A2E718B71700401307700524
:1015A4002380E704130780FA2380E70483C74704F2
:1015B400930B75FFB684E20793FBFB0F8546AA895C
:1015C4002E8B328937240040E187015763FA760174
:1015D4006308D5008946130700026313D500015739
:1015E400D98F93F7F70FB71C00402382FC041147EF
:1015F4002303E4801305F00F5D3D094CD135636D81
:101604007C11B7050700DA9537870700795563F22F
:10161400E504B3879500636EF702370B0800A9470A
:1016240033EB65016399F90689E48144513D2685CC
:101634000DA0DA850945553D05090345F9FFFD145B
:10164400050B693D81C49377FB0FFDF7DD3569FD1B
:101654007D55B7170040130770052380E70413076F
:1016640080FA2380E70403C74704418B2382E704FD
:10167400F250B7E700E023A0571123A24711E25428
:1016840032445259C259325AA25A125B825B724C8A
:10169400E24C21618280A5476395F90685691309A7
:1016A400F00FB3069900B3742B01B6941349F9FFF4
:1016B400B3749900856B33796901416B9387F9FFA2
:1016C400B3F7270199E363FC340193D94900C14777
:1016D400E3E637FF99BF0569C1697D19D9B71305D9
:1016E400800D638869011305000263847901130581
:1016F4001008CA85DD3B353D21DD4E99B384344164
:10170400D9B7DA852D45D533CA94E30099F2050992
:101714007D3BA30FA9FED5BF9387F9FF93F7F70F7E
:101724006361FC0C83C71C0413073008631FF704B0
:1017340037070800636BEB04B3079B00B706100080
:1017440063F5D704334BEB0089476393F90689802B
:10175400D549E38C04ECDA850945413B110903279B
:10176400C9FF91472320E48003076480E34E07FE0A
:1017740023033481FD17EDFBFD14110B81C4937712
:10178400FB0FE9FF7D3371F5E1B5B717004003C7DF
:101794005704B70708001377070219E3B787070050
:1017A4007955E378FBEA33079B00E3FFE7F855B587
:1017B4008547E382F9F2DA852D45053B9389F4FFE9
:1017C400E38504E6293393F7390091EB83260480FB
:1017D4000327090093074900E39AE6E43E89CE848F
:1017E400F1BFB5476396F9001305900BC93135BDB8
:1017F400B1471305B00AE38BF9FE99476391F904E5
:10180400B7050800B365BB002D45C53181448D4B38
:10181400A149753963967401832704802320F90054
:101824008504E39834FF8327048013172B01635541
:1018340007002312F900D5BB2322F900FDB39D470D
:101844006399F90281451305B0044531BD44232051
:10185400090023220900FD599D3993F77400CA97A2
:1018640003C70700FD14398D2380A700E39634FFD6
:101874006DBBA1476392F9046D398144630D0B007C
:101884008D479304C0036308FB00930400056304BD
:101894008B01930440041375C507E30895D81945D3
:1018A400393139390545213126850D3909453D310F
:1018B4004931E31C05D669BB91476399F9001305C7
:1018C4006006F536F53E130590090DB7E38F09D48C
:1018D400F154A9BB7D166206618693178601E187E0
:1018E40063D4070001458280931726003307F5006F
:1018F400AE9718439C4363E7E7007D16E37FF7FC4C
:101904007D55828005458280FD15E205E1851397AA
:101914008501618793F7F50F63480700FD15139759
:1019240025002A97584365D71385170062056185FA
:1019340082803308B5021C4283A80600B335B50281
:10194400C29733B50701AE98469585486367B500DD
:101954006394A50063E3070181480C43C6950CC357
:1019640088C21CC2828081471397870161876343C1
:10197400B7008280139727002A9723200700850742
:10198400E5B78147014793968701E18663C5B600B1
:1019940013351700828093962700AA9694428507F0
:1019A400558FD5B793D755408A07AA979C430545C9
:1019B4003315B5007D8D828017F3FFDFE702E33234
:1019C4002A84993705C5931725003E940327C4FF3D
:1019D400814711EB7D1516053E954205418517F3A8
:1019E400FFDF6700C33205838507E5B70145C5BF3F
:1019F40081471397870161876343C70082801397E8
:101A04002700B386E50094422A97850714C3D5B707
:101A14007D1662066186014793178601E18763D5C7
:101A2400070013351700828093172600B306F500CC
:101A3400AE9794429C437D16B58F5D8FF1BF8A05A6
:101A4400AA9501476363B500828083A6C5FFF1159B
:101A540093D71600D98F9CC11397F601E5B72A8353
:101A64000148014701456343D7008280B3870501DC
:101A740083A80700B30706019C43C697AA9763840B
:101A8400F80033B517010507B3080301620723A063
:101A9400F80061871108C1BF2A83014781470145C6
:101AA40063C3D70082803388E50083280800330E9F
:101AB400E600032E0E003388A8403308C84163842F
:101AC400080133B508018507B308E300E20723A042
:101AD4000801E1871107E9B717F3FFDFE702E32005
:101AE4000111B286B2842E86AA850A8575372A84A6
:101AF400A6850A857935333480000604133515002C
:101B0400018D056117F3FFDF6700632017F3FFDF23
:101B1400E702231B4111AA89AE8A328BB68402C222
:101B240002C402C60144131C8401135C8C41634942
:101B34009C02939B1400FD1B0549138CF4FFF15C7C
:101B44003304890162046184634D740592478E04F1
:101B5400CE9423AEF4FE410117F3FFDF6700E319CF
:101B640013192400B30B2B01014A93172A00D697AB
:101B740083A50B0088437800340050005D3B050AC0
:101B840093178A01E187F11BE351FCFE92474E99BA
:101B940005042320F900A2473EC2B24702C63EC450
:101BA40059B7131A8901135A8A41131D2400931734
:101BB4008A01E18763CF970092470A044E941CC0C0
:101BC400A24705091379F90F3EC2B24702C63EC4C3
:101BD40085BFB3079A0313152A0056950841780068
:101BE40034005000050AEA97DA978C439933C1B759
:101BF400970100209381C1401761002013014140E7
:101C040017F5FFFF13050540970500209385453F11
:101C1400171600201306C6FD63FAC50083220500CB
:101C240023A0550011059105E3EAC5FE171502002E
:101C3400130585EC97150020938585FB1716002066
:101C44001306065A63FAC5008322050023A0550033
:101C540011059105E3EAC5FE171500201305455843
:101C6400975500209385C5C36377B50023200500ED
:101C74001105E36DB5FEFD42739002BC8D42739075
:101C84004280B72200009382828873A002309702B8
:101C940000209382E23693E23200739052309752DE
:101CA40000009382A208739012346FC0243573002D
:101CB4002030397101436EC619A0397141536AC885
:101CC40066CA62CC5ECE19A0397101535AD056D27D
:101CD40052D44ED64AD826DA22DC06DE33016140DD
:101CE400828241114AC026C222C406C68282B24DF3
:101CF4004101024D924C224CB24B4101024B924A9B
:101D0400224AB2494101024992442244B24041016B
:101D140082803D432A876373C3029377F700BDEF44
:101D2400ADE5937606FF3D8ABA960CC34CC30CC747
:101D34004CC74107E36BD7FE11E28280B306C34070
:101D44008A069702000096966780A6002307B700CC
:101D5400A306B7002306B700A305B7002305B70001
:101D6400A304B7002304B700A303B7002303B700F9
:101D7400A302B7002302B700A301B7002301B700F1
:101D8400A300B7002300B700828093F5F50F939664
:101D94008500D58D93960501D58D61B7939627005F
:101DA4009702000096968682E78086FA9680C1178D
:101DB4001D8F3E96E374C3F8A5B73367B500FD5392
:101DC4000D8B79E7B7877F7F9387F7F710419441AD
:101DD400B372F6003363F600BE92B3E26200639717
:101DE400720C6318D6065041D441B372F6003363C3
:101DF400F600BE92B3E262006398720A631BD604D3
:101E040010459445B372F6003363F600BE92B3E214
:101E140062006391720A631ED6025045D445B372C0
:101E2400F6003363F600BE92B3E26200639A72086E
:101E34006311D60210499449B372F6003363F60075
:101E4400BE92B3E26200639372085105D105E30FB9
:101E5400D6F61317060193970601631CF700135770
:101E6400060193D706013305F7409375F50F91E901
:101E740082804183C1833305F7409375F50F91E167
:101E840082801377F70F93F7F70F3305F7408280BB
:101E94000346050083C60500050585056313D600C2
:101EA40065FA3305D640828011059105E312D6FE0A
:101EB400014582802105A105E31CD6FC01458280F1
:101EC4003105B105E316D6FC014582804105C10503
:101ED400E310D6FC01458280B717004003C777059D
:101EE4001377E70FA38BE704130700F8A38DE70428
:101EF4003D47238CE70413075003A38CE704828037
:101F040041112A83014E930E407E130F0019930F43
:101F1400400663E46E0E9308001913034006B37879
:101F24001503854E0D4FA14F337365020D8913358B
:101F3400150063EEBE0E1308F6FF79467298420848
:101F4400135808013307C70213D61700BE07329788
:101F54006146B3F6C60213068070B386C60236978E
:101F6400A166F58F42075D8FB716004083C7F6025E
:101F740093F70708A307F1000346F10083C7F602AD
:101F840093F70708E394C7FE8347F100B7160040B0
:101F940093F7F70FFDC7B71700409306700523802A
:101FA400D704930680FA2380D7040100010023AAF2
:101FB400070383C6170311667D1693E60608A388F4
:101FC400D702D45BC85F93854703A98EF18EF5FAD7
:101FD400930670052380D704930680FA2380D704E0
:101FE4000100010098C103C7170313670704A388FE
:101FF400E70223800704410182807D133368E303F1
:102004009308E016630E08003368F3039308D016B0
:10201400630808009378330093B818009388D8169F
:1020240033081E01131E0801135E0E01DDB5639310
:10203400E5030548638608000148630303002A8812
:1020440071087298FD15131E0801C205135E0E0176
:10205400C181C5B513F8150063F4BF007908D5B77D
:1020640013381800E5BF83C7F60293F70708A307E0
:10207400F1000346F10083C7F60293F70708E394DF
:10208400C7FE8347F10093F7F70FF1DF29B741113A
:10209400B7170040985F3AC6945F3247E39CE6FE68
:1020A4003245410182801D71CAC85EDE86CEA2CC53
:1020B400A6CACEC6D2C4D6C2DAC062DC66DA6AD890
:1020C4006ED6AA8BA527B717004093067005238008
:1020D400D704130780FA2A892380E704010001004A
:1020E40003C6F70213668600A387C70203C6F70276
:1020F4001376760FA387C7022380D7042380E704CF
:102104000100010003C6E7021376C60F2387C70246
:1021140003C6E702136616002387C7022380D70489
:102124002380E70401000100930480C1B3449502B5
:1021340003C73705116B130C0BE81377870FA389BB
:10214400E70403C7370593095002130A803E136757
:102154001700A389E7042167130707D0930AA00493
:1021640037140040930D0404130D80FAE17C7D1BA9
:10217400B3478503094CB38434033EC6334A45034D
:10218400B3C7E40293047005B3093A033EC8B3C766
:10219400E9028149B30A5A033ECABD67938707A679
:1021A400B3C7FA02916A3ECC930770052380FD0001
:1021B4002380AD01010001008347340593E7070242
:1021C400A309F40483570405B3E757012318F4045F
:1021D40083570405B3E79701C207C1832318F404A6
:1021E4008347340593F70702E5C303473405930790
:1021F4003405218B7DDB23809D002380AD0101000C
:10220400010003C707001377F70D2380E70003C716
:102214000700136707022380E70083570405B3E729
:1022240057012318F40483570405B3E79701C20741
:10223400C1832318F4048347340593F70702D5C3F5
:1022440083473405A18BEDFF9935AA873ECE8135AE
:10225400F247E30DF5FE83570405B3E7570123184E
:10226400F40483473405A18BEDDF0357040583474A
:1022740024053377EB00B307FB023E97B2471D8F6B
:10228400C24763D5E700D247634AF706636A3C074F
:102294009386190093F9F60FE24693171700B3C714
:1022A400D702635FE026850723809D002380AD016C
:1022B400B3C78703010001000357C402BA97C207DA
:1022C400C1832316F402CDB523809D002380AD0184
:1022D400010001008347340593E70702A309F404CE
:1022E40001B723809D002380AD01010001008347D5
:1022F400340593E70702A309F40435BFE38A09F818
:10230400B7170040130770052380E704130780FA0A
:102314002380E7040100010003C7370513F6FB0F10
:10232400930570051377870FA389E70403C737055F
:10233400130580FA518FA389E70483C637051387F1
:1023440037059D8A6390761F930670052380D70412
:10235400930680FA2380D704010001008346070016
:10236400130680FA93F6F60D2300D7008346070080
:1023740093E606022300D70003D707059166558F1D
:102384002398E70403D70705A166558F2398E7042C
:1023940093067005B717004003C737051377070284
:1023A400630E0718B717004083C637051387370530
:1023B400A18AFDDA930670052380D704930680FA78
:1023C4002380D7040100010083460700130680FA26
:1023D40093F6F60D2300D7008346070093E6060222
:1023E4002300D70003D707059166558F2398E70488
:1023F40003D70705A166558F2398E7049306700554
:10240400B717004003C7370513770702630507149E
:102414003717004083473705A18BEDFF8D392A8498
:10242400BD31E30F85FE37170040835707059166DA
:10243400D58F2318F704B717004003C737059386D1
:102444003705218B7DDB130770052380E704130711
:1024540080FA2380E7040100010003C70600137714
:10246400F70D2380E60003D7070583C62705916788
:10247400FD177D8FB387D702B7460F0093860624D6
:102484003349D9023E978567938707FAB397770153
:1024940033892703930700103349F9029307800C0B
:1024A4000E09330927410547B31B770193DB3B40F2
:1024B400338A4B03930B60553D67130707A6330A12
:1024C4007A03334AEA02B307F902B3C747036351F5
:1024D400200B8507094793067005B3C7E702371732
:1024E40000402300D704930680FA2300D7049607FC
:1024F400010001008356C702F6406644B697C2073E
:10250400C1832316F702D6444649B649264A964A59
:10251400064BF25B625CD25C425DB25D25618280F7
:10252400FD1759B32380B7042380A70401000100D9
:1025340003C73705518FA389E70401B52380D70466
:102544002380C7040100010003C73705136707028E
:10255400A389E70491B52380D7042380C70401002D
:10256400010003C7370513670702A389E70459BDB0
:10257400FD178DB7914763EEB70217E70100130704
:1025840067128A05BA959C41BA978287B7170040AB
:1025940003A7470B1345F5FF698F23AAE70A03A78F
:1025A400070B698F23A8E70A03A7070A798D23A0DD
:1025B400A70A8280B717004083A6470B1347F5FF8D
:1025C400F98E23AAD70A83A6070B558D23A8A70A39
:1025D40083A6070A758F23A0E70A8280B7170040F5
:1025E40003A7470B498F23AAE70A03A7070B134541
:1025F400F5FF45BFB717004083A6470B1347F5FF08
:10260400758F23AAE70A03A7070A598D4DB7B71791
:10261400004003A7470B498FEDB7914763EEB7021C
:1026240017E70100130747098A05BA959C41BA9731
:102634008287B717004003A7470D1345F5FF698F3D
:1026440023AAE70C03A7070D698F23A8E70C03A7A8
:10265400070C798D23A0A70C8280B717004083A6AE
:10266400470D1347F5FFF98E23AAD70C83A6070D50
:10267400558D23A8A70C83A6070C758F23A0E70C00
:102684008280B717004003A7470D498F23AAE70CA0
:1026940003A7070D1345F5FF45BFB717004083A6F1
:1026A400470D1347F5FF758F23AAE70C03A7070C03
:1026B400598D4DB7B717004003A7470D498FEDB7A4
:1026C400931705010547C1836382E5048DC109475A
:1026D400638DE5040D476380E50637170040231E2C
:1026E400F70883560709D58F2318F7088280371710
:1026F40000400356470993C6F7FFF18E231AD70803
:102704008326C70A558D2326A70AC1BF3717004061
:102714000356470993C6F7FFF18E231AD708832679
:10272400870A558D2324A70A4DBF371700408356C7
:102734004709DD8EE1B73717004083564709DD8E20
:10274400E9BF9D4763E3A70217E70100130707F8F2
:102754000A053A951C41BA97375700408287834748
:10276400270093F7070F2301F70082808347270090
:1027740093F7070F93E71700FDB78347270093F7F5
:10278400070F93E74700C5B78347270093F7070F61
:1027940093E75700C9BF8347270093F7070F93E7D1
:1027A4008700D1B78347270093F7070F93E7970074
:1027B4005DBF8347270093F7070F93E7C70065B70B
:1027C4008347270093F7070F93E7D70069BF99EA78
:1027D400B757004003C707001345F5FF798D2380E1
:1027E400A70082803757004005CE83471700C98F62
:1027F400A300F70037570040814711072146B3561D
:10280400F540858A89C6B386E7002380B60085072C
:10281400E397C7FEB757004003C70700598DC1B7F8
:10282400834617009347F5FFF58FD9B7B7170040D4
:1028340003D58700420541819377050491EB937793
:10284400F5013755E801130505803345F50282800B
:102854009377050C130700046397E7009377F5015A
:1028640037459C1CCDB72165130505D0828037E719
:1028740000E01C435443A183E206D58F1CC1FD57DD
:102884002320F7182322F7188280B7F700E088473F
:10289400CC478280814737370040A14663C4C700D4
:1028A400328582800345B740E38EA6FE3385F5006A
:1028B4000345050085072304A740CDB7B72700408B
:1028C400C8C709472380E70011472380E7008280B7
:1028D400411122C406C62A84913F2947B307E50261
:1028E400B2408D83B3D7870222449507B3D7E7025A
:1028F40037370040C207C1832316F7404101828065
:10290400716541111305052006C6D937B737004054
:10291400130770F82381E7400D47A381E7401307AD
:102924000004A380E74005472387E740B240410104
:1029340082802D4559EF03C5050009476317E50853
:1029440003A84500411106C6034718003285034613
:10295400080022074168518F930828FE6308170373
:1029640063E9E80005186303070523900600294579
:102974001DA8130648FE630BC7021518E31707FFCB
:1029840015463E87637BF602154705A83E8691C32C
:102994000546B7E70400FC472390C6004206CC4531
:1029A400418282970145B240410182801306700F33
:1029B4003E876374F6001307700FB7E70400239093
:1029C400E600FC4713160701D9BF2390060005450E
:1029D40082808280416779176304E504411122C42F
:1029E40006C685472A84639FF500B7E7040022855D
:1029F4002244B24003A38713970500209385857E64
:102A04004101028389476399F500B7E7040083A76E
:102A1400070B8545829771D9B240224441018280D7
:102A24008280797122D452CC2E842A8A97E50100BF
:102A3400938505CD17E50100130545CE06D63AC6A4
:102A440026D24AD0B68432894ECEEFC03107A6854D
:102A540017E50100130585CDEFC051062945EFC0E8
:102A6400310A8347840093F70702F1E383490400A2
:102A74008947054532476396F908544083C71600D1
:102A840083C60600A207D58FC166138616FE638C23
:102A9400C7028D16638FD7068D66938626902945C7
:102AA4006391D706B7E70400A285225403A3471411
:102AB400B250F249A6864A86925402595285624A15
:102AC4008547456102832D450DEF9307700F35450A
:102AD40063E99702B7E70400FC4748441306700F04
:102AE400CA858297814997070020938767709C4322
:102AF400014581CB9C4391C74E852686CA85829722
:102B04000145B250225492540259F249624A456135
:102B140082802D457DF7D5473545E3E497FEB7E739
:102B24000400FC4748445546CA8582976DBF214539
:102B3400C9BF411122C437E404008327841326C289
:102B4400AA84416506C6970500209385A5697D156D
:102B540082978327C40A170500001305E5E78588D3
:102B6400829795C0032304132244B24092449706EB
:102B740000209386E6184146C54517050020130535
:102B8400250741010283B240224492440145410198
:102B9400828019C59707002023ACA7640145828071
:102BA4004545828011476368A70A97E6010093862A
:102BB400E6B30A0536951841411106C63697AE8725
:102BC400B28502871307700F6145639DE700B7E77D
:102BD4000400FC471306700F170500201305056950
:102BE40082970145B2404101828005476145E39BDC
:102BF400E7FEB7E70400FC47054617050020130568
:102C0400255EF9BF55476145E39EE7FCB7E704003D
:102C1400FC475546170500201305C574D1B71307A3
:102C2400700F6145E390E7FCB7E70400FC47130627
:102C3400700F17050020130565745DB715476145CE
:102C4400E392E7FAB7E70400FC47154617050020AE
:102C54001305855971B709458280411126C2B7E42D
:102C6400040083A7C41322C44AC006C62E84970551
:102C74000020938525572A898297058905C59707DA
:102C840000209387E7F683D7A70BA28503A3440DFF
:102C94002310F4002244B24092444A85024901467A
:102CA40041010283B2402244924402494945410110
:102CB400828011456FF02FBF411193962500AA859C
:102CC4002D4506C697000020E780208AB2400145C2
:102CD40041018280411126C29394250022C44AC036
:102CE4002A843289A686AA850146254506C6970008
:102CF4000020E7808087A6864A86A285294597001A
:102D04000020E7808086B240224492440249014573
:102D140041018280011122CC06CE3714004026CA1C
:102D24004AC84EC652C483447405034AB405834951
:102D3400840503499405EFF02F9A8347A40593F47F
:102D4400F40F137AFA0F93E71700230DF40493F9A1
:102D5400F90F1379F90FB717004003C7A705058BBF
:102D64006DFF03D5C705A38D4705238C3705A38CB9
:102D74002705A38B9704F2406244D2444249B249E6
:102D8400224A0561828041119397050122C406C637
:102D940026C2C1872E8463DC0700B7E40400FC5418
:102DA400829719C1BC5482972165218D1DA093F788
:102DB40015008DC7EF606028B7E70400BC4F130609
:102DC40000648545170500200345C54282971345D5
:102DD4001400B240224492444101828093F72500BA
:102DE4008DC3EF00107FB7E70400BC4F13060064E7
:102DF4008945170500200345E53F829713452400C4
:102E0400C9BF93F7450085C3EF80F06AB7E70400B4
:102E1400BC4F41469145170500200345A53D8297C7
:102E2400134544007DB793F7850095C3EF20A02197
:102E3400B7E70400BC4F05661306062CA145170529
:102E440000200345253B82971345840059B793F727
:102E540005018DC3EF10B011B7E70400BC4F130692
:102E64000002C145170500200345C5388297134564
:102E7400040185B793F7050291C7EF20000A1345B3
:102E8400040281BF93F705048DC39D25B7E70400B1
:102E9400BC4F1306003C93050004170500200345AE
:102EA40065358297134504042DB793F7050813C5B8
:102EB400050885F393F70510ADCB9705002083C56E
:102EC400F533850593F5F50F17E501001305458ADC
:102ED40097070020A384B732EFC0413E17070020B4
:102EE4000347D7319307C003631AF70097070020FD
:102EF400A3860730EF40B046EF60A00B0D45EF808E
:102F0400907EEF4090060D45EF104013B7E70400A4
:102F1400BC4F1306006493050010170500200345F9
:102F2400652D8297134504106DB593F7052091C75D
:102F3400EF40B0341345042069BD9397250163D550
:102F44000702B7E4040083A7C41E82979D33BC4CD8
:102F540037F60200130606E08965170500200345CD
:102F640065298297096591B5939715010145E3D2C7
:102F740007E611651DBD1D7186CEB7F600E07957D1
:102F840098CAFD57DCCA0567B7E700E023A0E7103D
:102F94001306F00290C223A0E71801000100B7E76E
:102FA4000400BC471306C00381454808829797175D
:102FB4000020938767253ECA8967231CF100930785
:102FC400B00F2312F1029547A301F10285472303B1
:102FD400F102B5472304F102A167938707E03ECECF
:102FE40097070000938787CDBEC497070000938797
:102FF400A7CEBEC68567938717D02315F10297071E
:1030040000009387C7883EDAB7F5070097070000EA
:10301400938787D03EDE8146970700009387A7C930
:103024007000E1051945BEC097F0FF1FE780E0532B
:1030340058088147994670003E9603460600850766
:103044000507A30CC700E398D7FED24791C70357DF
:10305400810185676373F70001A0B7E7040083A7C4
:10306400470A48088297AA8501C917D501001305A4
:10307400256EEFC0A12401A0F64025618280411194
:1030840026C2B7E4040083A7040806C622C41705B1
:103094000000130585CF82971704002013048415BC
:1030A4002300A4000528EF80906FEF00304FEF005D
:1030B4005074EF10107DC92E03450400224403A36D
:1030C4008405B240924437F60200130606E089658F
:1030D40041010283411106C6B7170040130670056B
:1030E4002380C704930680FA2380D70401000100DB
:1030F40003C7F7021377A70FA387E7022380C70448
:103104002380D7040100010003C7F70213672700D7
:10311400A387E70223800704693E81471305407EA5
:103124000147814605468545EFE09FDDB7E704008A
:10313400B24003A34707014541010283411122C460
:1031440026C22E84AA84AA8517D501001305C56D4D
:1031540006C6EFC0A116A28517D501001305856D1B
:10316400EFC0C1152947B3D7E402B3F4E402114711
:10317400637597008507C207C183A9463357D402F4
:103184003374D402914663F58600050742074183F0
:103194009736002083C62610A9EEB337F000B30794
:1031A400F04097060020238FF604FD5755EF97074C
:1031B4000020A389070417D5010013056568EFC033
:1031C400A1249705002083C5E50317D50100130545
:1031D4006569EFC0A10E2244B240924497050020D5
:1031E40083C5550217D501001305856841016FC0D9
:1031F400E10C1386F6FF1376F60F914563E7C502DB
:103204001306F00FB387C702930640063307C702BD
:10321400B3C7D7023347D702970500202384F5FEAE
:1032240097070020A380E7FE79B7DD1693F6F60F23
:103234000546E362D6F8B386E7029305F00F096604
:1032440013060671B386B602B3C6C602170500207C
:10325400230AD5FA930640063387E640B307F702FC
:10326400B387B702B3C7C70217070020A30CF7F848
:1032740099B7797122D44ECE2A84AE89AA8517D5FE
:1032840001001305A55306D626D24AD0B28452CCE7
:1032940056CAEFC0A102CE8517D501001305C55249
:1032A400EFC0C101A68517D501001305A552EFC0D3
:1032B400E100A94733D9F902B3F9F902914763F65A
:1032C40037010509420913590901294633D5C402B6
:1032D4009147B3F4C40263F59700050542054181A3
:1032E400EFB0515C97D701009387874C8C43930AC6
:1032F400C003EFB04174AA84130540063305254189
:10330400EFB0515AA685EFB0017397D701009387A8
:10331400674A8C43EFB001472A8A33755403335408
:103324005403EFB031582A89D2852685EFB0B119FC
:10333400AA854A85EFB0217097D701009387C747C4
:103344008C43EFB021442AC65285EFB05150137913
:10335400F50F2685EFB0B14F91479379F50FB2453C
:1033640063E8871017D70100130747430A043A9408
:103374001C40BA97828797070020238337E9528538
:10338400EFB0A109EFB0B14C97070020A38AA7E6DC
:1033940097070020238727E717D501001305454425
:1033A400EFC081069705002083C585E517D5010088
:1033B40013054545EFB091709705002083C555E48A
:1033C40017D501001305C544EFB0516F2254B25014
:1033D40092540259F249624AD24A9705002083C5A1
:1033E40045E217D501001305654345616FB0116DC2
:1033F4002685EFB0510DEFB091459707002023814A
:10340400A7E097070020A38D37DF59B7970700205F
:10341400238827DF97070020A38437DF5285EFA096
:10342400D17FEFB0D14297070020238CA7DCADB742
:1034340097070020238627DD2685EFB0D108EFB05B
:10344400114197070020A38DA7DA97070020238A4C
:1034540037DB99B75285EFA0517CEFB0513F970706
:103464000020238FA7D897070020A38B27D9F1BF6B
:1034740097070020238637D997070020A38227D9EE
:103484002685EFB0510471BF41118545216506C6FB
:10349400EFF04F8E81452165EFF08FA2B240B7E780
:1034A40000E03707020023A0E710410182804111A8
:1034B40022C426C24AC006C60144B71400401309F8
:1034C400A00F83A7440A13970701635C0700050450
:1034D4001374F40F514597F0FF1FE78020DEE312C9
:1034E40024FF2285B2402244924402494101828051
:1034F400130101D923248126232611262322912670
:1035040023202127170400200344E4CF85476318B0
:10351400F42697040020938424CF8C40970700203E
:10352400238307CEB96713D705019387A7156310C3
:10353400F724930750FA2300F1009737002083D72C
:10354400A7DE13D787002301F100930720F8A30116
:10355400F10017D5010013056532930710FC23020F
:10356400F100A300E100EFB0715597070020A38F8D
:1035740087C89C4037A75AE117390020130949DA54
:103584001307D725CA846399E70C9737002083C7AC
:1035940037D0638E071C9737002083C7A7D0ADE3CD
:1035A4000327090091476316F7009737002023A9E2
:1035B40007D6854717070020A308F7C01707002080
:1035C4002304F7C017070020231107C8170700209A
:1035D400231E07C6094797360020A38EE6CA17376D
:1035E40000202301F7CC930710FBA302F100194636
:1035F4008A85173500200355E5C9EF20202FCDAA71
:10360400014597070020238107BC97370020A38436
:1036140007C8EF40202A0145EF40602F0145EF40E5
:10362400A0340145EF40E0390145EF40403F973772
:10363400002023AF07CE9737002023AD07CE97375E
:103644000020239B07CE97370020238D07C497378C
:103654000020238307C441BF37675AE19306D72963
:10366400639FD70A9737002083C797C263910710D7
:103674009737002083C707C3B9E703270900914799
:103684006316F7009737002023AC07C88547170750
:103694000020A30BF7B2170700202307F7B2170780
:1036A4000020231407BA17070020231107BA09477B
:1036B40097360020A381E6BE173700202304F7BE07
:1036C400930720FB1DB7014597070020238E07AE03
:1036D40097370020A38107BCEF40C01D0145EF4090
:1036E40000230145EF4040280145EF40802D01456E
:1036F400EF40E0329737002023AC07C29737002011
:1037040023AA07C297370020239807C297370020BF
:10371400238A07B897370020238007B855B7B7E640
:103724005AE19386D6216397D70619468A8531656F
:10373400A3028100EF20801B91471737002023212B
:10374400F7BE1306401F97070020238F87A697070D
:103754000020A38B87A697070020239907AE9737ED
:103764000020238507BC9305401F05457D2B970743
:103774000020238A07A89707002023A707A88320EF
:10378400C12603248126832441260329012613010B
:1037940001278280B7065AE19386D62F639FD70408
:1037A4008D4719468A85173500200355A5AEA30217
:1037B400F100EF20A0138947173700202322F7B622
:1037C40097070020238287A097070020A38E879E57
:1037D40097070020239C07A697070020239707A696
:1037E40097070020A38C07A497370020238007B4F1
:1037F4001306800C9305800C8DBF130757AA6392A0
:10380400E704894719468A8517350020035585A89A
:10381400A302F100EF20800D9737002023A207B008
:10382400970700202382879A97070020A38E879802
:1038340097070020239C07A097070020239707A041
:1038440065B737275AE11307D72D6396E70CB547B9
:1038540019468A85173500200355C5A3A302F10034
:10386400EF20C008835749011307803E938747061A
:10387400C207C183636CF70817370020231CF7AA1B
:1038840083D764011307803E93874706C207C18329
:103894006362F70E17370020231FF7A8EF00207E7E
:1038A4009735002083D545A9173500200355A5A8D1
:1038B400EFF0DF88173600200356C6A7973500209F
:1038C40083D525A717350020035585A65D32170536
:1038D40000200345E592EF30F07D170500200345F5
:1038E4003592EF40C0021705002003458591EF4053
:1038F400A007170500200345E590EF40800C17054D
:10390400002003453590EF408011DDB59737002046
:103914002392E7A2B5B737C75AE11307D7236390B9
:10392400E706B94719468A85173500200355859659
:10393400A302F100EF10907B9737002083D7879F75
:10394400130740066377F7009387C7F913970701B6
:10395400418397370020239FE79C9737002083D724
:10396400879D130740066377F7009387C7F913977A
:103974000701418397370020239FE79A05B73797BC
:103984005AE11307F7066397E704930730FB8A8528
:103994001946173500200355E58FA302F100EF10F7
:1039A400F0749737002083D7279913074006814581
:1039B4006377F7009387C7F993950701C181973718
:1039C4000020239BB796173500200355C596EFF0CA
:1039D400EFF605B737E75AE17D076396E7049307E7
:1039E40040FB19468A85173500200355A58AA30292
:1039F400F100EF10B06F835789011307803E93875E
:103A04004706C207C183636BF700173700202315ED
:103A1400F7929735002083D5259275B79737002004
:103A2400239CE790FDB737B75AE113077785639472
:103A3400E706930750FB8A8519461735002003557E
:103A44006585A302F100EF10706A9307803E173773
:103A540000202312F78E17370020231FF78C854789
:103A640017F7FF1F2306F77A9305803E1305803E60
:103A7400EFF0CFEC17F5FF1F0345C578EF307074F6
:103A840017F5FF1F03451578EF30707997F7FF1F7F
:103A9400238C0772B1BB37475AE19306778C639244
:103AA400D704930760FB8A85194617250020035520
:103AB400657EA302F100EF1070639307803E173711
:103AC4000020231AF7869307401F17370020231579
:103AD400F786894717F7FF1F230CF7729305401FDA
:103AE40071B7B7565AE19386D62A639FD7029307D4
:103AF40070FB8A851946172500200355A579A30272
:103B0400F100EF10B05E9307803E173700202314B6
:103B1400F78297370020239107828D4717F7FF1FFD
:103B24002308F76E814599B7B7765AE1938676896B
:103B34006395D70E93068025300091652D4597F047
:103B4400FF1FE78080A2034791068D47E311F7C268
:103B54009727002083C7E773B14665441387C7FFDF
:103B64001377F70F63E9E60AFD1793F7F70F338727
:103B74008702901432970347E7DBE311F7FE9306BD
:103B84008025300091652D45172700202303F77009
:103B940097F0FF1FE780609D9726002083C6666F1D
:103BA400338486028147172500201305257965464D
:103BB4003307F4002400269703470700B385A700C2
:103BC40085072380E500E395C7FE8D47172700206E
:103BD4002328F774854717F7FF1F2307F75E17F7A6
:103BE400FF1FA303F75E97F7FF1F2390076697F75E
:103BF400FF1F239D076497F7FF1FA381076497277F
:103C0400002023850772930780FBA302F10023039E
:103C1400D1001D46F1BABD4799BF1307D72BE398CE
:103C2400E7B493068025300091652D4597F0FF1F7A
:103C3400E780A093834691068D47E39AF6B29727CF
:103C4400002083C707653145E5451387E7FF1377F0
:103C5400F70F6369E508850793F7F70F3386B70213
:103C6400981432970347E7DBE311F7FE1727002088
:103C74002301F7620147172800201308286CE54543
:103C8400B306E6002000A29683C6060033050701AA
:103C940005072300D500E315B7FE0D47972600203E
:103CA40023A0E668054797F6FF1F238FE65097F693
:103CB400FF1FA38BE65017F7FF1F2318075817F7AA
:103CC400FF1F2315075817F7FF1FA30907561727C8
:103CD4000020230D0764130790FBA302E1002303D4
:103CE400F10005BFB6879DBF19718D45130500020C
:103CF40086DEEFE03F88371700408327C70A70004D
:103D04009306400693E707022326F70A8D652D459F
:103D140097F0FF1FE78060858347F100F65017276F
:103D24000020A305F760096182809727002083C7DC
:103D3400F75FA9E782808327890A5285050493E700
:103D440007022324F90A97E0FF1FE780005883271E
:103D5400C90A4E85420493E707022326F90A97E02D
:103D6400FF1FE78080564180E36794FCF240624481
:103D7400D2444249B249224A05618280011126CACD
:103D84009314050122CC4AC84EC652C406CE328AC8
:103D9400AE890144C18037190040F9B7B717004014
:103DA40003A7070CE176FD16758F23A0E70C03A784
:103DB400070DA16613060005558F23A8E70CB7E786
:103DC400040003A38705894517F5FF1F03458542B2
:103DD4000283972700209387A75498439147630A47
:103DE400F70C9727002083C7274B17F7FF1F1307EC
:103DF400E741B1E3B716004083A6460C13960601CB
:103E04006347060083470700850793F7F70F17F703
:103E1400FF1F230DF73E172700200347575163EA7E
:103E2400E70841CB97F7FF1F2382073E97F7FF1F51
:103E3400239D07408280B717004083A7470C411198
:103E440006C69396070163CE06048345070017D57B
:103E54000100130525A4850593F5F50F97F7FF1FBA
:103E64002386B73AEFB081459727002083C7374CA4
:103E740017F7FF1F03478739636AF70285CB97F764
:103E8400FF1F238507389727002023870740EF70FB
:103E94005027B24017D50100130505A141016FB0A9
:103EA400A15697F7FF1F238307367DBFB240410118
:103EB400828082808D4505656FE02FF6011152C422
:103EC40085452A8A056522CC26CA4AC84EC606CE2E
:103ED400A144EFE08FF40144371900408969832736
:103EE400C90C29450604B3E737012326F90C97E0EA
:103EF400FF1FE780A03C8327890C1374F40FB3E7FA
:103F040037012324F90C8327490C13973701635590
:103F1400070005041374F40FFD14294593F4F40FFA
:103F240097E0FF1FE7808039DDF8B714004083A7CE
:103F3400C40C0969B3E7270123A6F40C63180A0427
:103F4400953F83A7840C0567D98F23A4F40C2945D6
:103F540097E0FF1FE780803683A7840C2945B3E7E9
:103F6400270123A4F40C97E0FF1FE780203583A7E3
:103F7400C40C2285F2406244B3E7270123A6F40C63
:103F84004249D244B249224A05618280253783A737
:103F9400C40C0567D98F23A6F40C55BF411106C67E
:103FA40022C426C23714004031378327C40C096663
:103FB4008564D18F2326F40C8326C40C2945C58E31
:103FC4002326D40C0327840C518F2324E40C97E07C
:103FD400FF1FE780A02E8327840CB2402945C58F9C
:103FE4002324F40C22449244410117E3FF1F670089
:103FF400E32C41118D45096506C6EFE00FE28D45BE
:104004000565EFE08FE1B717004003A7870C8966C9
:10401400B240558F23A4E70C03A7870C856641465D
:10402400558F23A4E70CB7E7040003A3870517F50E
:10403400FF1F0345251CC1454101028317F7FF1FDC
:104044000347D71C8547631DF70097F7FF1F938726
:10405400171C83C70700850717F7FF1FA309F71A63
:1040640097F7FF1F83C7B71A63EAA70097F7FF1FE5
:10407400A38E071897F7FF1FA38B07188280972733
:1040840000209387E7299C43B9E38547172700203D
:10409400230CF71E9727002083D7C72913D787003F
:1040A40097260020A38DE61A17270020230AF71A63
:1040B4009727002083D7272813D787009726002027
:1040C400A380E61A17270020230DF71882800547DE
:1040D4006393E70417270020A308F71A9727002003
:1040E40083D7472513D7870097260020A385E61892
:1040F400172700202302F7189727002083D7A72328
:1041040013D7870097260020A388E61617270020D8
:104114002305F716828089466393D70497270020E6
:104124002385E7169727002083D7C72013D7870056
:1041340097260020A385E622172700202302F722D2
:104144009727002083D7271F13D78700972600209F
:10415400A388E620172700202305F72082808D46B8
:104164006392D70497270020A381E71297270020A2
:1041740083D7471C13D7870097260020A383E61C08
:10418400172700202300F71C9727002083D7A71A9E
:1041940013D7870097260020A386E61A1727002046
:1041A4002303F71A8280130101D72324812893065D
:1041B40080252A84300891652D4523261128232241
:1041C400912823202129232E312797E0FF1FE78000
:1041D400C0399547B307F402981CBA9703C7E7F9A7
:1041E400972600202387E60A1307E4FF09CB133739
:1041F400940011C703C707FA85476317F70C9307A1
:1042040050F82304F1009727002083D7E71113D730
:1042140087002305F100930730F8A305F100194640
:10422400930770FB2C001725002003550510A304E9
:10423400E1002306F100A3068100EF10206B930731
:1042440050FA2308F1009727002083D7E70D13D7EE
:1042540087002309F100930720F8A309F1009307CD
:1042640010FC230AF1008547A308E1001729002068
:104274001309090B17F7FF1FA30AF7F8A30A810014
:1042840085444A87631F940419460C083165EF106E
:10429400E0659147172700202324F70897F7FF1FAD
:1042A400238487F297F7FF1FA38087F297F7FF1FF6
:1042B400239E07F897270020238A07061306800CFD
:1042C4009305800C054595348320C1280324812857
:1042D40083244128032901288329C12713010129A3
:1042E40082808949631F340319460C08172500206E
:1042F400035545FAEF10805F9727002023A2070299
:1043040097F7FF1F238297EC97F7FF1FA38E97EA77
:1043140097F7FF1F239C07F297F7FF1F239707F2D6
:1043240051BF8D476313F40419460C081725002068
:10433400035545F6EF10805B9727002023A237FF33
:1043440097F7FF1F238297E897F7FF1FA38E97E63F
:1043540097F7FF1F239C07EE97F7FF1F239707EE9E
:1043640097F7FF1FA38C07ECB1B79306C4FF93F62E
:10437400F60F914763EBD706E5479726002083C6DF
:1043840046F1B386F60217250020130525FB814765
:1043940065463387F6002008229703470700B38554
:1043A400A70085072380E500E395C7FE19460C089E
:1043B40017250020035505EEEF1040538D471727AE
:1043C4000020232FF7F4854717F7FF1F230EF7DE8E
:1043D40017F7FF1FA30AF7DE97F7FF1F239707E6D8
:1043E40097F7FF1F239407E6A5BFA546631AD404D5
:1043F400172700200347D7E921CF032709006316B5
:10440400F7009727002023AD07F0854717F7FF1F14
:10441400A30CF7DA17F7FF1F2308F7DA17F7FF1FC4
:10442400231507E217F7FF1F231207E20947972610
:104434000020A382E6E6172700202305F7E609A853
:10444400A9466310D40217270020034777E455D701
:1044540019460C08172500200355C5E3EF10004941
:10446400B1BDAD476313F4069727002083C757E215
:10447400E5D3014597F7FF1F238807D4972700202A
:10448400A38B07E0EF3000430145EF30404801457E
:10449400EF30804D0145EF30C0520145EF302058D8
:1044A4009727002023A607E89727002023A407E8DE
:1044B40097270020239207E897270020238E07DC04
:1044C40097270020238007DE61B7B1476318F40003
:1044D4009727002083C7D7DBA5FF61BFB547631EBD
:1044E400F40A835749019306803E93874706C2071F
:1044F400C18363E5F60297260020239DF6E28357E5
:1045040067011307803E93874706C207C183636A26
:10451400F700172700202310F7E201A89307803E35
:10452400D9BF972700202398E7E0913E97250020E4
:1045340083D585E0172500200355E5DFEFE01FC094
:1045440017260020035606DF9725002083D565DE55
:10455400172500200355C5DDEFE0BFD117F5FF1F78
:10456400034505CAEF30003517F5FF1F034555C94C
:10457400EF30E03917F5FF1F0345A5C8EF30C03E03
:1045840017F5FF1F034505C8EF30A04317F5FF1FBC
:10459400034555C7EF30A04865BDB9476310F4041F
:1045A40083574901930630069387C7F9C207C1832D
:1045B40063F3F60297260020239EF6D683576701FD
:1045C400130730069387C7F9C207C183E363F7F47F
:1045D400930740063DBF93074006E9BFBD47E31F6D
:1045E400F4CC97F7FF1F83C7A7C281C71387D7FFF0
:1045F40025EB9307803E17270020231FF7D285471A
:1046040017F7FF1F2306F7C097F7FF1F83C727C0BD
:1046140081C7138797FF3DEB97270020239A07D084
:10462400854717F7FF1F2304F7BE17C501001305BD
:104634002537EFA0715D9307803E17270020231ACA
:10464400F7CEB707E8039387873E17270020232375
:10465400F7CE9725002083D525CE1305803EF9BDDE
:104664000547639AE7009307401F17270020231587
:10467400F7CC894771B70947E398E7F89307200314
:1046840017270020231AF7CA8D479DBF054763915A
:10469400E702F94717270020231CF7C8894717F7B3
:1046A400FF1F2306F7B617C501001305E52F51B701
:1046B40009476392E7029307C003172700202319D1
:1046C400F7C68D4717F7FF1F2303F7B417C501007B
:1046D4001305052EB9BF0D476392E70293078007C0
:1046E400172700202316F7C4914717F7FF1F23004D
:1046F400F7B217C501001305252C25BF1147639296
:10470400E7029307400B172700202313F7C29547AE
:1047140017F7FF1F230DF7AE17C501001305452A30
:1047240009BF15476392E7029307000F172700207C
:104734002310F7C0994717F7FF1F230AF7AC17C5D3
:10474400010013056528F5B51947E396E7EE9307CD
:10475400C01217270020231DF7BC9D4717F7FF1F22
:104764002307F7AA17C5010013058526D9B597278E
:10477400002083C7C7BB63860736011106CE22CC4F
:1047840026CA371400404AC852C456C24EC6EFF077
:104794006FF20327840C0569896433672701232496
:1047A400E40C0327840C2945856A458F2324E40CF3
:1047B40097E0FF1FE78080B08327C40C2945096A6E
:1047C400B3E727012326F40C97E0FF1FE78000AF2F
:1047D4008327C40C2149C58F2326F40CEFF08FEDF9
:1047E4008327C40CC58F2326F40C9304B005939738
:1047F4008401E18763D7072C8327840CB3E757012F
:104804002324F40C8327840C29457D19B3E747013D
:104814002324F40C97E0FF1FE78040AA8327C40CED
:1048240086042945B3E747012326F40C1379F90FCD
:1048340093F4F40F97E0FF1FE78040A8E31909FA07
:1048440085450565EFD07FDD8327840C0567294501
:10485400D98F2324F40C97E0FF1FE78020A6832739
:10486400840C294533EA47012324440D97E0FF1FB4
:10487400E780C0A49307B00F371700408326470C86
:1048840013963601634906008327C70C8966D58FC2
:104894002326F70C39A0FD1793F7F70FE5F3EFF094
:1048A400EFEF0545EFF08FE1131405014180220479
:1048B40042040145EFF08FE04180498C4204EFF05F
:1048C400EFED41809307B0056317F40217C50100AB
:1048D4001305C5FEEFA051336244F240D24442496D
:1048E400B249224A924A1306800C9305800C09456A
:1048F40005616FF08FC39307C0156313F40217C5E6
:104904000100130565FCEFA0313005456244F24017
:10491400D2444249B249224A924A05616FF0BF88A3
:104924009307D025631AF40017C50100130545FA4F
:10493400EFA0912D0945D9BF9307E035631AF40020
:1049440017C50100130585F9EFA0112C0D457DBF96
:104954009307F045631AF40017C501001305C5F861
:10496400EFA0912A11455DB793070056631AF4002E
:1049740017C50100130505F8EFA01129154579B7EE
:1049840093071066631AF40017C50100130545F771
:10499400EFA0912719459DBF93072076631AF40071
:1049A40017C50100130585F6EFA011261D45B9BFF3
:1049B400856713873786631AE40017C5010013055A
:1049C400A5F5EFA07124214591B793874796631A03
:1049D400F40017C501001305E5F4EFA0F122254505
:1049E40035B78567138757A6631AE40017C5010016
:1049F400130505F4EFA05121294509BF138767B6B4
:104A0400631AE40017C50100130545F3EFA0D11F95
:104A14002D45EDBD138777C6631AE40017C5010061
:104A2400130585F2EFA0511E3145CDB5138787D606
:104A3400631AE40017C501001305C5F1EFA0D11CEA
:104A44003545E9B5138797E6631AE40017C50100F5
:104A54001305C5F0EFA0511B39454DBD1387A7F6CB
:104A6400631AE40017C501001305C5EFEFA0D119BF
:104A74003D4569BD9387B706631CF404EF90004776
:104A8400996601468145254597E0FF1FE780E0AD23
:104A940017C501001305C5EDEFA011171306401F3C
:104AA4009305401F0D45EFF04FA86244F240D244F5
:104AB4004249B249224A924A056117D3FF1F67004F
:104AC400C3778327C40CB3E757012326F40C1DBB1B
:104AD400F2406244D2444249B249224A924A0561B0
:104AE40082808280130101D92324812623229126E6
:104AF4002A8423202127930680252E89B284916558
:104B040030002D452326112697E0FF1FE780E0A5FE
:104B140083476400954613073400B387D7023400F3
:104B2400B697930684000346070005078507A38903
:104B3400C71EE31AD7FE93068025014691652545D5
:104B440097E0FF1FE78060A23000930680259165FF
:104B5400294597E0FF1FE78040A1834734004A8638
:104B6400A2858507A301F4002685EF003058832031
:104B7400C126032481268324412603290126130107
:104B8400012782809145130500406FD0BF9E854563
:104B9400130500406FD01F9E411106C622C426C2D1
:104BA40037140040C5378327840A2945856493E771
:104BB40007402324F40A97D0FF1FE780207083273F
:104BC400840A938404802945C58F2324F40A97D04A
:104BD400FF1FE780A06E8327C40A294593E7074097
:104BE4002326F40A97D0FF1FE780406D8327C40A69
:104BF400B2402945DD8C2326940A22449244410183
:104C040017D3FF1F6700836B411106C622C49D3F63
:104C1400371400400327C40A8567938707805D8F94
:104C24002326E40A0327C40A2945136707402326D9
:104C3400E40A0327840AD98F2324F40A97D0FF1F98
:104C4400E780C0678327840AB240294593E7074079
:104C54002324F40A2244410117D3FF1F670003668B
:104C6400411122C4371400408327C40A26C2856434
:104C74009384048006C6C58F2326F40A213783272C
:104C8400C40A294593E707402326F40A97D0FF1F57
:104C9400E780C0628327840A2945C58F2324F40A48
:104CA40097D0FF1FE78080618327C40AB240DD8C60
:104CB4002326940A2244924441018280411122C451
:104CC400371400408327C40A26C285649384048071
:104CD40006C6C58F2326F40A75358327840A294519
:104CE40093E707402324F40A97D0FF1FE780005D71
:104CF4008327840A2945C58F2324F40A97D0FF1FEC
:104D0400E780C05B8327C40AB240DD8C2326940A63
:104D14002244924441018280411106C622C4853D49
:104D2400371400408327840A294593E70740232446
:104D3400F40A97D0FF1FE78060588327840A056729
:104D440013070780D98F2324F40A294597D0FF1F1E
:104D5400E780C0569307B00F371700408326470AF1
:104D640093F6064099EA8327C70A856693860680E8
:104D7400D58F2326F70A014539A0FD1793F7F70FBE
:104D8400F1FF59350545B2402244410182800111A9
:104D940022CC26CA4AC84EC606CEAA89E53337179E
:104DA40000408327C70A856493840480C58F232623
:104DB400F70A21493714004093978901E18763D0AA
:104DC40007068327840A93E707402324F40A294526
:104DD40097D0FF1FE780804E8327840A29457D19D9
:104DE400C58F2324F40A97D0FF1FE780204D832723
:104DF400C40A86092945C58F2326F40A1379F90FB5
:104E040093F9F90F97D0FF1FE780404BE31609FA97
:104E1400F2406244D2444249B24905618280832708
:104E2400C40A93E707402326F40A55B701114EC676
:104E3400856922CC26CA4AC852C406CE2A8AA1440D
:104E4400B933014437190040938909808327C90A7B
:104E540029450604B3E737012326F90A97D0FF1F33
:104E6400E780C0458327890A1374F40FB3E7370139
:104E74002324F90A8327490A93F7074081C70504C5
:104E84001374F40FFD14294593F4F40F97D0FF1F06
:104E9400E780C042C5FC631C0A000D352285F24040
:104EA4006244D2444249B249224A056182804D3B60
:104EB400F5B7011106CE22CC2A84F9391305000571
:104EC400F935993D2285E135813DF9311305100508
:104ED4007D3D99350145993F2AC63D33F2406244F0
:104EE400324505618280011106CE2EC622CC2A8469
:104EF400653113050005613D05352285493D293D90
:104F0400B2452E856935093D01336244F240294595
:104F1400056117D3FF1F6700633A41119305F0033E
:104F24001305700306C622C47D3F9305500613057E
:104F34001006553F9305B00F1305A0066D37814544
:104F4400130520064D379305B00313050006613F92
:104F5400930500051305E00679379305300F130513
:104F6400D0065137171400201304843B8345640092
:104F74003D45953F835564004145A181AD372945A1
:104F840097D0FF1FE7806034854513055004A13F87
:104F94009305800E13056004B9378D45130570041D
:104FA40099378145130580043D3F814513059004DD
:104FB4001D3F9305800E1305200535378D451305D8
:104FC40030051537954513050003313F8945130511
:104FD4001003113FA9453545393785451305A0050B
:104FE4001937294597D0FF1FE780202ECD4513059B
:104FF400C006D53DA9451305C003F5358145130504
:10500400D003D53581450145F93D294597D0FF1F8A
:10501400E780A02B85450145F935294597D0FF1F29
:10502400E780A02A93054002130520036D3D9145B6
:105034001305A0054D3D2244B2409305F00313052A
:10504400700341014DB541111305800506C622C404
:105054008D352A8413059005A93D9315850093F594
:105064000530A295C2052244B240C18197170020A1
:10507400239AB72A17C501001305059641016FA0AD
:10508400E123411122C4056413050480914506C639
:1050940026C2EFD02FCE914513050040EFD08FCD1F
:1050A400B717004003A7870A13040480B7E4040079
:1050B400598C23A4870A03A7870A17E4FF1F130444
:1050C40064131367074023A4E70AEFF0FFB3BC4C53
:1050D400034504001306003293050002829703453A
:1050E4000400224403A38405B24092441306003C06
:1050F4009305000441010283411197C50100938582
:10510400E5FC17B501001305656106C6EFA0011B98
:1051140017C5010013054513EFA0411AB2402945F4
:1051240041016FA0E11D411197C50100938545FB25
:1051340017B501001305855E06C6EFA0211817C533
:1051440001001305250FEFA06117B2402945410165
:105154006FA0011B411122C406C6834705002A849F
:105164009DC397C50100938565FD17B5010013051F
:10517400E55AEFA0A1144C4017C501001305451CC6
:10518400EFA0C1131DA058411DE797C501009385E9
:10519400E5FA17B5010013056558EFA0211217C5EC
:1051A40001001305651BEFA061112244B24029459B
:1051B40041016FA0E114A1679386D7036311D7025D
:1051C40097C50100938585F717B5010013050555AB
:1051D400EFA0C10E17C5010013050519E9B7ED07C6
:1051E40097C50100938585F517B50100130505538F
:1051F4006319F700EFA0810C17C50100130505180A
:105204005DB7EFA0A10B4C4017C5010013050519AC
:1052140085BF411197C501009385C5ED17B5010000
:105224001305C54F06C6EFA06109B24029454101E7
:105234006FA0010D411106C617F7FF1F034787E34F
:105244009307F00A631FF7009307F008894517F5E1
:10525400FF1F130525E217F7FF1F231DF7E0EF706B
:10526400E05CEF70C06C014597E7FF1F23A207FCC9
:1052740097E7FF1F239B07FA97E7FF1F238807FA87
:1052840097E7FF1F239107FA97E7FF1F239C07F86F
:1052940097E7FF1F239A07F897E7FF1F239C07F858
:1052A400EF70805F97C50100938545E717B501004E
:1052B4001305C546EFA0810017C501001305C511EC
:1052C400EF90D17FB240294541016FA061034111A4
:1052D40022C406C626C293F715002E846387070EE0
:1052E400814617E6FF1F130666BE854517E5FF1FB7
:1052F400035505F3EFC0702505C597C501009385D7
:10530400A5E217B5010013056541EF90317B17B590
:1053140001001305257CEF90717A2945EF90517EA9
:1053240097C50100938545E017B501001305053FB6
:10533400EF90D17817B501001305057BEF90117834
:105344002945EF90F17B17E5FF1F1305A5BA5C45CE
:1053540005472390E700EF30E11997C501009385D5
:10536400A5DC17B501001305653BEF90317517B542
:1053740001001305A578EF9071742945EF905178D9
:10538400930710F817F7FF1F2306F7CE97E7FF1FC1
:1053940083D7C7E817F7FF1FA30EF7CC17F5FF1F36
:1053A400130545CDA183914517F7FF1F2305F7CCBE
:1053B40097F7FF1FA38107CCEF70404713451400F4
:1053C400B240224492444101828093F72500D5C71C
:1053D40017E7FF1F035767E551CF97E6FF1F938633
:1053E40026E5944297C701009387070117E6FF1F3C
:1053F4000346C6E3814517F5FF1F130525DFEF803C
:105404001022AA8425C997C501009385A5D817B58C
:1054140001001305A530EF90716AA68517B5010048
:105424001305456FEF9091692945EF90716D97E7EA
:10543400FF1F239C07DE930710F817F7FF1F230BAA
:10544400F7C297E7FF1F83D767DD17F7FF1FA30393
:10545400F7C2A18317F7FF1F230FF7C091458D47AC
:1054640017F5FF1F130505C117F7FF1FA305F7C0A5
:10547400EF70C03B13452400A1B793F74500A5CBBB
:1054840097C50100938505D117B5010013050529BA
:10549400EF90D16217B5010013058569EF90116291
:1054A4002945EF90F165930720F817F7FF1F2303B1
:1054B400F7BC97E7FF1F83D707D717F7FF1FA30B87
:1054C400F7BAA18317F7FF1F2307F7BA854717F722
:1054D400FF1FA302F7BAEF10107917F5FF1F13058A
:1054E40065B99145EF70803413454400D1BD93F7FD
:1054F40085008DCF97C501009385C5C917B50100F7
:105504001305C521EF90915B17B501001305856361
:10551400EF90D15A2945EF90B15E97E7FF1F23968C
:1055240007D0EF80B01C1345840059BD93F70501E3
:10553400A5CB854517E5FF1F0355E5CEEF40B14ADE
:1055440097C50100938505C517B501001305051D11
:10555400EF90D15617B5010013050560EF90115671
:105564002945EF90F159930730F817F7FF1F2303EC
:10557400F7B097E7FF1F83D707CB17F7FF1FA30BDE
:10558400F7AE17F5FF1F1305E5AEA1838D4517F799
:10559400FF1F2302F7AEEF706029134504010DB518
:1055A40093F70502A5CF97C501009385A5BE17B54E
:1055B40001001305A516EF90715017B501001305EE
:1055C400E55BEF90B14F2945EF909153930740F875
:1055D40017F7FF1F2300F7AA97E7FF1F83D787C496
:1055E40017F7FF1FA308F7A8A18317F7FF1F2304CA
:1055F400F7A8854717F7FF1FA30FF7A697E7FF1F25
:10560400239207C2EF10306617F5FF1F130585A616
:105614009145EF70A021134504025DB393F705048F
:10562400E9CB97C501009385E5B617B501001305CD
:10563400E50EEF90B14817B501001305A555EF909D
:10564400F1472945EF90D14B97F7FF1F83C787A2F6
:105654001307700A6382E7061307800A6388E70862
:105664001307600A6391E704930720F817F7FF1FF5
:105674002302F7A097E7FF1F83D707BB17F7FF1F86
:10568400A30AF79EA18317F7FF1F2306F79E8547FA
:1056940017F7FF1FA305F79EB14517F5FF1F130565
:1056A400659DEF70A018EF10105C1345040497E794
:1056B400FF1F239B07B629B3930770F817F7FF1F43
:1056C400230AF79A97E7FF1F83D707B617F7FF1F39
:1056D400A302F79AA18317F7FF1F230EF7988547B4
:1056E40017F7FF1FA30AF798994545BF930780F85A
:1056F400F1B793F705080145E38407CC97C501008A
:10570400938545A917B5010013054501EF90113B99
:1057140017B5010013058549EF90513A2945EF90DB
:10572400313E9307A0F817F7FF1F2305F79497E777
:10573400FF1F83D727B017F7FF1FA30DF792A1838D
:1057440017F7FF1F2309F792854717F7FF1FA304D5
:10575400F79297E7FF1F239F07ACEF10D05017F580
:10576400FF1F130525919145EF70400C1345040864
:1057740081B9411122C497C501009385659D2A848E
:1057840017B50100130585F906C6EF9031334C4077
:1057940017C50100130545B8EF9051322945EF9024
:1057A4003136034704009307F00F6319F70297C5D6
:1057B40001009385E59917B50100130525F6EF90CF
:1057C400F12F4C4017C50100130505B6EF90112FBA
:1057D4002244B240294541016F909132B2402244A3
:1057E4004101828085CD411122C417B50100130502
:1057F400E5F22E8497C501009385859006C6EF9047
:10580400F12BA28517C50100130545BCEF90112BA0
:105814002244B240294541016F90912E8280197132
:10582400A2DCA6DA2E84AA8497C501009385058E8E
:1058340017B50100130585EE86DEEF903128294562
:10584400EF90112C9306400670008D652D45971737
:105854000020239B87AC97D0FF1FE78000D19717C8
:10586400002083D767AC13D7870093064006014610
:105874008D652545A308E1002309F10097D0FF1F9A
:10588400E780A0CE9306400670008D65294597D029
:10589400FF1FE78080CD97E7FF1F2393979897E733
:1058A400FF1F239D87968547054517E7FF1F23188C
:1058B400F796EF60707E97D7FF1F9387A763DC4747
:1058C40003D70700C167FD17631DF700B7E704009E
:1058D400BC4F1306000A854517E5FF1F0345559382
:1058E4008297F6506654D65409618280797122D425
:1058F40026D24AD02E842A898145B2844800714632
:1059040006D6EFC00FC197D7FF1F9387A75EDC476A
:1059140083D70700231421012313F100EF10702211
:105924009547A305F1009307401F3EC6FD57230585
:10593400A100230AF100EF1010332686A285480047
:10594400EF101023B25022549254025945618280C0
:10595400011122CC37E404005C5C06CE354697C5C1
:1059640001009385A58F17C5010013052570829743
:1059740001E917C501001305658FEF90F12801A017
:1059840097E7FF1F938707AF3EC4B7F50700856706
:10599400938707C0814617E6FF1F1306A687E10514
:1059A40019453EC697D0FF1FE78020BC7C441946AA
:1059B40097E5FF1F9385058617E5FF1F1305457CB3
:1059C4008297340017E6FF1F1306C68497C50100AB
:1059D4009385C5AB17C501001305C5ACEF80A01CAA
:1059E4002A840DC997B501009385C57917B50100BF
:1059F4001305C5D2EF90910CA28517C501001305BC
:105A04002588EF90B10B2945EF90910FF240624445
:105A140005618280EFE0001C17B501001305057CC9
:105A2400EF700038EFB0E021EF40B12417D5FF1F2D
:105A340013050549EF40911117B501001305057BC6
:105A4400EF40F1242A84EF70B012EF00014AEF60B6
:105A54009142EF80D02EEF70F071EF20F12697B5D0
:105A640001009385257217B50100130525CB09C8DC
:105A7400EF90D104A28517C501001305A58251B783
:105A8400EF90D10317C5010013050584EF901103AE
:105A94002945EF90F106EF209109EFF0A03497B576
:105AA40001009385256E29C117B50100130505C7AB
:105AB400EF90D10017C5010013058582EF90110006
:105AC4002945EF90F10397B501009385A56B17B5B0
:105AD40001001305A5C4EF90617E17C501001305ED
:105AE4006582EF90A17D05B717B50100130505C3C5
:105AF400EF90C17C17C501001305058EEF90017C62
:105B04002945EF90E17F0145EF6010596DBF4111C8
:105B140022C437E404008327041A06C68297EF6080
:105B2400F0308327040817F5FFFF1305857A829761
:105B340097D7FF1FA38EA76C17D5FF1F1305853BAF
:105B4400EF10903F2244B24041016FF07FE04111D9
:105B540022C417E4FF1F1304246026C22286AA84E9
:105B640091469D652D4506C697D0FF1FE780E09FAF
:105B74009306001001469D65254597D0FF1FE780D9
:105B8400C09E2286230094002244B240924491464F
:105B94009D652945410117D3FF1F6700039DB7E7A2
:105BA40004005171FC47A6D397E4FF1F9384844CEF
:105BB400A2D5CAD186D72E8432892E86AA85268577
:105BC400829783C70400130780029387E70793F73C
:105BD400F70F636FF77A17B70100130767E18A07B6
:105BE400BA979C43BA9782878D4797B501009385EE
:105BF400A55B17B50100130565B26303F402EF90CA
:105C0400E16B17B501001305E516EF90216B2945EB
:105C1400EF90016FBE502E549E540E596D618280D8
:105C2400EF90C16917B5010013054516EF9001699E
:105C34002945EF90E16C930720F8114697E5FF1F83
:105C4400938545434A8517E7FF1F2305F74297E7E6
:105C5400FF1FA3820742EFF07FC92A840DC597B5C1
:105C640001009385655417B50100130525ABEF902A
:105C7400E164A28517B5010013050515EF900164D1
:105C84002945EF90E16797B501009385E55117B574
:105C940001001305A5A8EF90616217B50100130573
:105CA400E513EF90A1612945EF9081654165930764
:105CB40030FA054697E5FF1F9385C53B7D1517E729
:105CC400FF1F2309F73AEFF07FC22A840DC597B569
:105CD40001009385654D17B50100130525A4EF90C8
:105CE400E15DA28517B501001305050EEF90015D76
:105CF4002945EF90E160B7E70400BC4F0566130641
:105D040006C8A14517D5FF1F03459550829719B7BB
:105D140091476301F40297B501009385E54817B5EF
:105D240001001305A59FEF90615917B501001305F4
:105D3400250EE1BDB7E70400FC4F914517D5FF1FC1
:105D44000345154D829797B501009385E54517B531
:105D540001001305A59CEF90615617B501001305CA
:105D6400E50CEF90A1552945EF908159EF10A06FF4
:105D740091457DAA85476301F40297B50100938597
:105D8400A54217B5010013056599EF90215317B586
:105D940001001305250B95BD97D7FF1F23952749B0
:105DA400B7E704000566BC4F130606C8C14599BF92
:105DB4008D476301F40297B501009385E53E17B55D
:105DC40001001305A595EF90614F17B50100130568
:105DD400250925BD930740F8114697E5FF1F9385D4
:105DE40065294A8517E7FF1F2306F72897E7FF1F52
:105DF400A3830728EFF09FAF2A84E30D05E097B54E
:105E040001009385653A17B5010013052591EF90BC
:105E1400E14AA28517B50100130505FBEF90014A7D
:105E2400FDB39147E319F4F8B7E70400FC4F930579
:105E3400000217D5FF1F0345B53D829797B50100B2
:105E44009385853617B501001305458DEF900147FD
:105E540017B501001305450229B7894763E1870295
:105E640097B501009385453417B501001305058BDB
:105E7400EF90C14417B501001305450179B397E4C8
:105E8400FF1F83C4441F97E7FF1F83C7B71E97B53F
:105E9400010093856531A20417B501001305058837
:105EA400DD8CEF90A141A28517B50100130545FFD4
:105EB400EF90C140C2042945EF908144C184939678
:105EC40004019375F40F17E5FF1F1305A51AC1828A
:105ED4004A86EF00307497B501009385E52C17B519
:105EE40001001305A58363599000EF90213D17B578
:105EF40001001305A5FC11BBEF90413C17B501004F
:105F04001305C5FC19B3894763E1870297B50100FE
:105F14009385852917B5010013054580EF90013A53
:105F240017B50100130585FBCDB1EF10C053A28551
:105F340017E5FF1F13050514EF60500FE1B98D47F6
:105F44006301F40297B501009385052617A50100A6
:105F54001305C57CEF90813617B501001305C5F90B
:105F64006DB1B76602000146B7750200054597C0DA
:105F7400FF1FE780805F930760F817E7FF1F230B7D
:105F8400F70E97E7FF1FA388070E9307002617E76E
:105F9400FF1F2323F70EE1779387073117E7FF1FCE
:105FA400231EF70C314697E7FF1FA38AA70C97E53A
:105FB400FF1F9385250C4A8597E7FF1F2381070C54
:105FC400EFF0DF922A84E30705C497B501009385B7
:105FD400A51D17A5010013056574EF90212EA28558
:105FE40017B501001305C5F215BDB1476301F402ED
:105FF40097B501009385451B17A50100130505728C
:10600400EF90C12B17B50100130545F2FDBEB7E7AC
:106014000400FC4F9305000417D5FF1F0345551FCB
:106024008297EF104044B14521B7914763E187025D
:1060340097B501009385451717A501001305056E53
:10604400EF90C12717B50100130505F07DBE97E455
:10605400FF1F83C4640297E7FF1F83C7D701A2040D
:10606400DD8C8E04B76702006D14BE942286A6856B
:1060740017B50100130585EEEF904124B7E704003E
:10608400FC47228697E5FF1F938515FF280082971A
:1060940093160401C1823000A685094597C0FF1FED
:1060A400E780A04C2A8419C517B501001305C5EC77
:1060B400EF908135930770F8194697E5FF1F938594
:1060C40065FB4A8517E7FF1F2306F7FA97E7FF1FCB
:1060D400A38487FAEFF09F812A84E30D05B297B574
:1060E40001009385650C17A5010013052563EF9046
:1060F400E11CA28517B50100130505E905B399470D
:10610400630DF41097B501009385050A17A50100E6
:106114001305C560EF90811A17B50100130545E812
:10612400EDB4914763E1870297B501009385C507F4
:1061340017A501001305855EEF90411817B50100FE
:10614400130585E7D9B497E4FF1F83C4E4F297E706
:10615400FF1F83C757F2A204DD8C8E04B7670200C9
:106164006D14BE942286A68517B50100130505E6B5
:10617400EF90C114B7E70400FC47228697E5FF1FA0
:10618400938595EF2800829793160401C18230000D
:10619400A6850D4597C0FF1FE780203D2A8419C5B9
:1061A40017B50100130545E4EF900126930780F825
:1061B400194697E5FF1F9385E5EB4A8517E7FF1F0F
:1061C400230AF7EA97E7FF1FA38887EAEFF00FF2A5
:1061D4002A84E30105A497B501009385E5FC17A57E
:1061E40001001305A553EF90610DA28517B50100B9
:1061F4001305C5E025B199476301F40297B5010081
:10620400938585FA17A5010013054551EF90010BFD
:1062140017B50100130505E0CDBAB7E70400FC4F3C
:106224009305000417D5FF1F034595FE8297EF10D1
:1062340080239945F5B98D476301F40297B50100B0
:10624400938585F617A501001305454DEF900107C9
:1062540017B50100130585DD4DBA17B50100130507
:10626400E5DDEF90611A0145EFC06FE00D45EFF0F9
:106274001F8E294597C0FF1FE780200597C0FF1F89
:10628400E780A0FB41BA99476301F40297B5010086
:10629400938585F117A5010013054548EF90010288
:1062A40017B50100130545DA8DB217E7FF1F034741
:1062B400B7DC97E7FF1F83C727DC22075D8F916652
:1062C400BA96C2061166C1821306F6EF8D4763655E
:1062D400D60297D7FF1F9387E7C19C4B17E6FF1F92
:1062E400034676D99386C70029CE03D6070069C230
:1062F4008907E39CD7FE89471307A0F8114697E561
:10630400FF1F938525D74A8597E6FF1F2384E6D68A
:1063140017E7FF1FA301F7D6EFF04FDD2A84E30B45
:10632400058E97B50100938525E817A5010013058F
:10633400E53EEF80B178A28517B50100130505D2BB
:10634400F1BC03D607006302E60A8907E39BF6FE65
:106354008D475DB791476302F40297B501009385B9
:10636400A5E417A501001305653BEF80317517B54A
:106374000100130525D06FF05F89B7E70400FC4FD7
:106384009305000817D5FF1F034595E88297F9BACE
:1063940097B50100938545E117A50100130505385C
:1063A400EF80D17117B50100130545CE6FF0FF855D
:1063B4002390E70017D5FF1F1305C5B3EF20211560
:1063C40097B50100938545DE17A501001305053532
:1063D400EF80D16E17B50100130545CCEF80116E27
:1063E4002945EF80F171814701BF2390070017D53C
:1063F400FF1F130525B0EF20811197B50100938588
:10640400A5DA17A5010013056531EF80316B17B5C7
:106414000100130525CAD9B7411122C406C6834712
:1064240005002A849DC397B501009385A5D317A5BC
:1064340001001305A52EEF8071684C4017B50100CB
:10644400130585FCEF80916769A85841B707CF0011
:106454009387777D631AF70497B50100938585D0F8
:1064640017A501001305852BEF8051651C44835546
:10647400C4008356E40003C6070017B501001305E2
:1064840025FAEF80B1632945EF8091670356E40054
:106494008355C40008442244B24097070020239542
:1064A400C7E841016FF0AFEFB707CC009387777D62
:1064B400631FF70297B501009385C5CA17A50100AC
:1064C4001305C525EF80915F1C448356E400835572
:1064D400C40003C6070017B501001305A5F6EF8035
:1064E400F15D2244B240294541016F807161B707D3
:1064F400CE009387777D6302F70297B501009385F9
:1065040065C617A5010013056521EF80315B4C407A
:1065140017B50100130585E835B7B240224441019F
:106524008280B7E704004111FC4726C297E4FF1FAD
:10653400938444B42E8606C622C42E84AA85268556
:10654400829797B501009385E5C717A50100130548
:10655400E51CEF80B15697E5FF1F83C5A5B117A5CC
:10656400010013052566EF8071552945EF805159C7
:1065740083C704003D479387070693F7F70F636EBD
:10658400F76A17A701001307E7508A07BA979C43D5
:10659400BA9782879D476303F40297B501009385F8
:1065A40065C217A5010013056517EF80315117A5C2
:1065B40001001305A561EF807150FDAA97E7FF1F45
:1065C40083C757ABD1C797E7FF1F83D7E7AA17E75E
:1065D400FF1F035747AAC207D98F17D7FF1F2329C5
:1065E400F7C483C7640097B501009385A5BD17A5BB
:1065F40001001305A51217D7FF1F2309F7C2EF8067
:10660400F14B97D7FF1F9387A7C28C4317D6FF1F61
:106614000346C6C117A501001305055DEF80114AA5
:106624002945EF80F14D97E7FF1FA38507A4224476
:10663400B2409244930700F817E7FF1F230CF7A218
:106644009D4517E5FF1F1305E5A241016F60001E7C
:10665400EF70701597E7FF1F239FA7A093570501BD
:106664002A8417E7FF1F2309F7A0935785010145E3
:1066740017E7FF1FA302F7A0EF70B01397E7FF1F00
:10668400238DA79E97B501009385C5B317A5010077
:106694001305C508EF80914217E6FF1F0346E69DE8
:1066A400A28517A501001305A5558DBFCD4763012C
:1066B400F40297B501009385E5B017A50100130511
:1066C400E505EF80B13F17A501001305E554E5B5D5
:1066D40037E404007C44414697E5FF1F9385959970
:1066E40017E5FF1F130585B0829797E7FF1F83C740
:1066F400879917E7FF1F0347F798A2070323840529
:10670400D98F17D7FF1F2312F7B21306000A894542
:106714002244B240924417D5FF1F034575AF41018F
:1067240002838D476301F40297B50100938585A91F
:1067340017A50100130585FEEF80513817A5010048
:10674400130545638DBD17E4FF1F0344C49297E707
:10675400FF1F83C7379297B501009385A5A622042E
:1067640017A50100130585FB5D8CEF803135A285EB
:1067740017A501001305C54BEF8051342945EF805F
:1067840031380D4697E5FF1F9385C58E2285EFF0BE
:10679400EF95AA840DC997B501009385A5A217A505
:1067A40001001305A5F7EF807131A68517A5010037
:1067B40013054549EF8091302244B2409244294563
:1067C40041016F80F13397D7FF1F239E87A4B7E75A
:1067D4000400116603A38705130606E891450DBF5F
:1067E4008D476301F40297B501009385A59D17A514
:1067F40001001305A5F2EF80712C17A50100130504
:10680400256655BB17E4FF1F0344E48697E7FF1F83
:1068140083C7578697B501009385C59A220417A5A7
:1068240001001305A5EF5D8CEF805129A28517A502
:10683400010013056542EF8071282945EF80512C32
:106844000D4697E5FF1F9385E5822285EFF00F8AB9
:10685400AA840DC197B501009385C59617A50100BB
:106864001305C5EBEF809125A68517A50100130537
:10687400E53F89B797D7FF1F2396879AB7E70400A8
:10688400116603A38705130606E89305000249B5BC
:10689400894763E1870297B501009385A59217A5FF
:1068A40001001305A5E7EF80712117A50100130569
:1068B400E55D11B397D4FF1F83C4E47B97D7FF1F13
:1068C40083C7577B97B501009385C58FA20417A58D
:1068D40001001305A5E4DD8CEF80511EA68517A5E4
:1068E40001001305253AEF80711D2945EF805121E0
:1068F400228697D5FF1F9385E5772685EFE01FFF56
:106904002A84630B053497B501009385A58B17A5DD
:1069140001001305A5E0EF80711AA28517A50100F7
:106924001305853741BD8D476301F40297B5010016
:106934009385458917A50100130545DEEF801118DD
:1069440017A501001305455BBDB117D4FF1F034410
:10695400847297D7FF1F83C7F77197B5010093859A
:106964006586220417A50100130545DB5D8CEF80C5
:10697400F114A28517A5010013054533EF80111406
:106984002945EF80F1170D4697D5FF1F9385856E36
:106994002285EFE0BFF5AA840DC197B50100938568
:1069A400658217A50100130565D7EF803111A6850F
:1069B40017A501001305C530F5BB97D7FF1F239515
:1069C4008786B7E70400116603A38705130606E864
:1069D4009305000435BB914797A501009385857EF7
:1069E40017A50100130585D363E98700EF80110D16
:1069F40017A50100130545557DBEEF80310CA28516
:106A040017A501001305452DEF80510B2945EF8093
:106A1400310F97D4FF1F83C4046697D7FF1F83C722
:106A24007765A204DD8C228697D5FF1F9385856444
:106A34002685EFE0BFEB2A8459C597A5010093850D
:106A4400657817A50100130565CDEF803107A28590
:106A540017A5010013058529B1BB914763E187029E
:106A640097A501009385057617A50100130505CBAD
:106A7400EF80D10417A50100130505542DBE97D44A
:106A8400FF1F83C4445F97D7FF1F83C7B75EA20469
:106A9400DD8C228697D5FF1F9385C55D2685EFE0A3
:106AA400FFE42A840DC197A501009385A57117A55C
:106AB40001001305A5C6EF807100A28517A501008A
:106AC40013050524C5B997C7FF1F239F9774D5BD28
:106AD4008D476301F40297A501009385A56E17A560
